{
  "contractName": "MedicalRecord",
  "abi": [
    {
      "anonymous": false,
      "inputs": [
        {
          "indexed": true,
          "internalType": "address",
          "name": "doctor",
          "type": "address"
        }
      ],
      "name": "DoctorAuthorized",
      "type": "event"
    },
    {
      "anonymous": false,
      "inputs": [
        {
          "indexed": true,
          "internalType": "address",
          "name": "doctor",
          "type": "address"
        }
      ],
      "name": "DoctorRevoked",
      "type": "event"
    },
    {
      "anonymous": false,
      "inputs": [
        {
          "indexed": true,
          "internalType": "address",
          "name": "patient",
          "type": "address"
        },
        {
          "indexed": false,
          "internalType": "string",
          "name": "patientName",
          "type": "string"
        },
        {
          "indexed": false,
          "internalType": "string",
          "name": "diagnosis",
          "type": "string"
        },
        {
          "indexed": false,
          "internalType": "uint256",
          "name": "date",
          "type": "uint256"
        }
      ],
      "name": "RecordAdded",
      "type": "event"
    },
    {
      "anonymous": false,
      "inputs": [
        {
          "indexed": true,
          "internalType": "address",
          "name": "patient",
          "type": "address"
        },
        {
          "indexed": false,
          "internalType": "uint256",
          "name": "recordIndex",
          "type": "uint256"
        }
      ],
      "name": "RecordDeleted",
      "type": "event"
    },
    {
      "anonymous": false,
      "inputs": [
        {
          "indexed": true,
          "internalType": "address",
          "name": "patient",
          "type": "address"
        },
        {
          "indexed": false,
          "internalType": "uint256",
          "name": "recordIndex",
          "type": "uint256"
        },
        {
          "indexed": false,
          "internalType": "string",
          "name": "diagnosis",
          "type": "string"
        }
      ],
      "name": "RecordUpdated",
      "type": "event"
    },
    {
      "inputs": [
        {
          "internalType": "address",
          "name": "",
          "type": "address"
        }
      ],
      "name": "authorizedDoctors",
      "outputs": [
        {
          "internalType": "bool",
          "name": "",
          "type": "bool"
        }
      ],
      "stateMutability": "view",
      "type": "function",
      "constant": true
    },
    {
      "inputs": [
        {
          "internalType": "address",
          "name": "",
          "type": "address"
        },
        {
          "internalType": "uint256",
          "name": "",
          "type": "uint256"
        }
      ],
      "name": "medicalRecords",
      "outputs": [
        {
          "internalType": "string",
          "name": "patientName",
          "type": "string"
        },
        {
          "internalType": "string",
          "name": "diagnosis",
          "type": "string"
        },
        {
          "internalType": "uint256",
          "name": "date",
          "type": "uint256"
        }
      ],
      "stateMutability": "view",
      "type": "function",
      "constant": true
    },
    {
      "inputs": [
        {
          "internalType": "string",
          "name": "patientName",
          "type": "string"
        },
        {
          "internalType": "string",
          "name": "diagnosis",
          "type": "string"
        }
      ],
      "name": "addRecord",
      "outputs": [],
      "stateMutability": "nonpayable",
      "type": "function"
    },
    {
      "inputs": [
        {
          "internalType": "uint256",
          "name": "recordIndex",
          "type": "uint256"
        },
        {
          "internalType": "string",
          "name": "newDiagnosis",
          "type": "string"
        }
      ],
      "name": "updateRecord",
      "outputs": [],
      "stateMutability": "nonpayable",
      "type": "function"
    },
    {
      "inputs": [
        {
          "internalType": "uint256",
          "name": "recordIndex",
          "type": "uint256"
        }
      ],
      "name": "deleteRecord",
      "outputs": [],
      "stateMutability": "nonpayable",
      "type": "function"
    },
    {
      "inputs": [],
      "name": "getRecords",
      "outputs": [
        {
          "components": [
            {
              "internalType": "string",
              "name": "patientName",
              "type": "string"
            },
            {
              "internalType": "string",
              "name": "diagnosis",
              "type": "string"
            },
            {
              "internalType": "uint256",
              "name": "date",
              "type": "uint256"
            }
          ],
          "internalType": "struct MedicalRecord.Record[]",
          "name": "",
          "type": "tuple[]"
        }
      ],
      "stateMutability": "view",
      "type": "function",
      "constant": true
    },
    {
      "inputs": [
        {
          "internalType": "string",
          "name": "patientName",
          "type": "string"
        }
      ],
      "name": "getRecordsByPatientName",
      "outputs": [
        {
          "components": [
            {
              "internalType": "string",
              "name": "patientName",
              "type": "string"
            },
            {
              "internalType": "string",
              "name": "diagnosis",
              "type": "string"
            },
            {
              "internalType": "uint256",
              "name": "date",
              "type": "uint256"
            }
          ],
          "internalType": "struct MedicalRecord.Record[]",
          "name": "",
          "type": "tuple[]"
        }
      ],
      "stateMutability": "view",
      "type": "function",
      "constant": true
    },
    {
      "inputs": [
        {
          "internalType": "address",
          "name": "doctor",
          "type": "address"
        }
      ],
      "name": "authorizeDoctor",
      "outputs": [],
      "stateMutability": "nonpayable",
      "type": "function"
    },
    {
      "inputs": [
        {
          "internalType": "address",
          "name": "doctor",
          "type": "address"
        }
      ],
      "name": "revokeDoctor",
      "outputs": [],
      "stateMutability": "nonpayable",
      "type": "function"
    }
  ],
  "bytecode": "0x608060405234801561001057600080fd5b50611c7b806100206000396000f3fe608060405234801561001057600080fd5b50600436106100935760003560e01c806358c9202c1161006657806358c9202c1461011c5780638eff3c291461013857806397678a0314610156578063c959624814610188578063e71a5880146101a457610093565b80630416af2714610098578063061f9811146100b45780631c631466146100d05780632d3975f0146100ec575b600080fd5b6100b260048036038101906100ad9190611364565b6101d4565b005b6100ce60048036038101906100c99190611476565b610272565b005b6100ea60048036038101906100e5919061149f565b6105cb565b005b61010660048036038101906101019190611364565b610800565b6040516101139190611818565b60405180910390f35b61013660048036038101906101319190611364565b610820565b005b6101406108bc565b60405161014d91906117f6565b60405180910390f35b610170600480360381019061016b919061138d565b610a85565b60405161017f93929190611833565b60405180910390f35b6101a2600480360381019061019d919061140a565b610bdc565b005b6101be60048036038101906101b991906113c9565b610d00565b6040516101cb91906117f6565b60405180910390f35b6000600160008373ffffffffffffffffffffffffffffffffffffffff1673ffffffffffffffffffffffffffffffffffffffff16815260200190815260200160002060006101000a81548160ff0219169083151502179055508073ffffffffffffffffffffffffffffffffffffffff167fc7053e532de062d754b8ed96090affe0c4ba36dde0a699de7dd5185a9a9e7d0f60405160405180910390a250565b6000803373ffffffffffffffffffffffffffffffffffffffff1673ffffffffffffffffffffffffffffffffffffffff1681526020019081526020016000208054905081106102f5576040517f08c379a00000000000000000000000000000000000000000000000000000000081526004016102ec90611878565b60405180910390fd5b60008190505b60016000803373ffffffffffffffffffffffffffffffffffffffff1673ffffffffffffffffffffffffffffffffffffffff168152602001908152602001600020805490506103499190611a40565b8110156104c4576000803373ffffffffffffffffffffffffffffffffffffffff1673ffffffffffffffffffffffffffffffffffffffff16815260200190815260200160002060018261039b91906119ea565b815481106103d2577f4e487b7100000000000000000000000000000000000000000000000000000000600052603260045260246000fd5b90600052602060002090600302016000803373ffffffffffffffffffffffffffffffffffffffff1673ffffffffffffffffffffffffffffffffffffffff1681526020019081526020016000208281548110610456577f4e487b7100000000000000000000000000000000000000000000000000000000600052603260045260246000fd5b9060005260206000209060030201600082018160000190805461047890611afe565b610483929190611141565b50600182018160010190805461049890611afe565b6104a3929190611141565b506002820154816002015590505080806104bc90611b30565b9150506102fb565b506000803373ffffffffffffffffffffffffffffffffffffffff1673ffffffffffffffffffffffffffffffffffffffff168152602001908152602001600020805480610539577f4e487b7100000000000000000000000000000000000000000000000000000000600052603160045260246000fd5b60019003818190600052602060002090600302016000808201600061055e91906111ce565b60018201600061056e91906111ce565b6002820160009055505090553373ffffffffffffffffffffffffffffffffffffffff167fdd8f9b8bb78c3654c0d21819fea0af920a136c830f6db0b0cb220422f316bab0826040516105c091906118b8565b60405180910390a250565b6000803373ffffffffffffffffffffffffffffffffffffffff1673ffffffffffffffffffffffffffffffffffffffff16815260200190815260200160002080549050821061064e576040517f08c379a000000000000000000000000000000000000000000000000000000000815260040161064590611878565b60405180910390fd5b600160003373ffffffffffffffffffffffffffffffffffffffff1673ffffffffffffffffffffffffffffffffffffffff16815260200190815260200160002060009054906101000a900460ff16806106d157503373ffffffffffffffffffffffffffffffffffffffff163373ffffffffffffffffffffffffffffffffffffffff16145b610710576040517f08c379a000000000000000000000000000000000000000000000000000000000815260040161070790611898565b60405180910390fd5b806000803373ffffffffffffffffffffffffffffffffffffffff1673ffffffffffffffffffffffffffffffffffffffff1681526020019081526020016000208381548110610787577f4e487b7100000000000000000000000000000000000000000000000000000000600052603260045260246000fd5b906000526020600020906003020160010190805190602001906107ab92919061120e565b503373ffffffffffffffffffffffffffffffffffffffff167f025dd575b14ca3dc8d0b4690c36e13aa78a22497a2f87a510d5b89e98605baed83836040516107f49291906118d3565b60405180910390a25050565b60016020528060005260406000206000915054906101000a900460ff1681565b60018060008373ffffffffffffffffffffffffffffffffffffffff1673ffffffffffffffffffffffffffffffffffffffff16815260200190815260200160002060006101000a81548160ff0219169083151502179055508073ffffffffffffffffffffffffffffffffffffffff167ea8f5cec2bb2e273b1757cce595776dacdc60b8c5245756d69fa2bd0b2833cc60405160405180910390a250565b60606000803373ffffffffffffffffffffffffffffffffffffffff1673ffffffffffffffffffffffffffffffffffffffff168152602001908152602001600020805480602002602001604051908101604052809291908181526020016000905b82821015610a7c578382906000526020600020906003020160405180606001604052908160008201805461094f90611afe565b80601f016020809104026020016040519081016040528092919081815260200182805461097b90611afe565b80156109c85780601f1061099d576101008083540402835291602001916109c8565b820191906000526020600020905b8154815290600101906020018083116109ab57829003601f168201915b505050505081526020016001820180546109e190611afe565b80601f0160208091040260200160405190810160405280929190818152602001828054610a0d90611afe565b8015610a5a5780601f10610a2f57610100808354040283529160200191610a5a565b820191906000526020600020905b815481529060010190602001808311610a3d57829003601f168201915b505050505081526020016002820154815250508152602001906001019061091c565b50505050905090565b60006020528160005260406000208181548110610aa157600080fd5b906000526020600020906003020160009150915050806000018054610ac590611afe565b80601f0160208091040260200160405190810160405280929190818152602001828054610af190611afe565b8015610b3e5780601f10610b1357610100808354040283529160200191610b3e565b820191906000526020600020905b815481529060010190602001808311610b2157829003601f168201915b505050505090806001018054610b5390611afe565b80601f0160208091040260200160405190810160405280929190818152602001828054610b7f90611afe565b8015610bcc5780601f10610ba157610100808354040283529160200191610bcc565b820191906000526020600020905b815481529060010190602001808311610baf57829003601f168201915b5050505050908060020154905083565b600060405180606001604052808481526020018381526020014281525090506000803373ffffffffffffffffffffffffffffffffffffffff1673ffffffffffffffffffffffffffffffffffffffff1681526020019081526020016000208190806001815401808255809150506001900390600052602060002090600302016000909190919091506000820151816000019080519060200190610c7f92919061120e565b506020820151816001019080519060200190610c9c92919061120e565b506040820151816002015550503373ffffffffffffffffffffffffffffffffffffffff167fabf956e712eb5b9ee34b39c298c8f13b7e3ab5ac61e12fc5edb7ea72325f2aa3848442604051610cf393929190611833565b60405180910390a2505050565b606060008060003373ffffffffffffffffffffffffffffffffffffffff1673ffffffffffffffffffffffffffffffffffffffff1681526020019081526020016000208054905067ffffffffffffffff811115610d85577f4e487b7100000000000000000000000000000000000000000000000000000000600052604160045260246000fd5b604051908082528060200260200182016040528015610dbe57816020015b610dab611294565b815260200190600190039081610da35790505b5090506000805b6000803373ffffffffffffffffffffffffffffffffffffffff1673ffffffffffffffffffffffffffffffffffffffff1681526020019081526020016000208054905081101561110b5784604051602001610e1f91906117c8565b604051602081830303815290604052805190602001206000803373ffffffffffffffffffffffffffffffffffffffff1673ffffffffffffffffffffffffffffffffffffffff1681526020019081526020016000208281548110610eab577f4e487b7100000000000000000000000000000000000000000000000000000000600052603260045260246000fd5b9060005260206000209060030201600001604051602001610ecc91906117df565b6040516020818303038152906040528051906020012014156110f8576000803373ffffffffffffffffffffffffffffffffffffffff1673ffffffffffffffffffffffffffffffffffffffff1681526020019081526020016000208181548110610f5e577f4e487b7100000000000000000000000000000000000000000000000000000000600052603260045260246000fd5b9060005260206000209060030201604051806060016040529081600082018054610f8790611afe565b80601f0160208091040260200160405190810160405280929190818152602001828054610fb390611afe565b80156110005780601f10610fd557610100808354040283529160200191611000565b820191906000526020600020905b815481529060010190602001808311610fe357829003601f168201915b5050505050815260200160018201805461101990611afe565b80601f016020809104026020016040519081016040528092919081815260200182805461104590611afe565b80156110925780601f1061106757610100808354040283529160200191611092565b820191906000526020600020905b81548152906001019060200180831161107557829003601f168201915b505050505081526020016002820154815250508383815181106110de577f4e487b7100000000000000000000000000000000000000000000000000000000600052603260045260246000fd5b602002602001018190525081806110f490611b30565b9250505b808061110390611b30565b915050610dc5565b5060008260405160200161111f91906117f6565b6040516020818303038152906040529050816040820152829350505050919050565b82805461114d90611afe565b90600052602060002090601f01602090048101928261116f57600085556111bd565b82601f1061118057805485556111bd565b828001600101855582156111bd57600052602060002091601f016020900482015b828111156111bc5782548255916001019190600101906111a1565b5b5090506111ca91906112b5565b5090565b5080546111da90611afe565b6000825580601f106111ec575061120b565b601f01602090049060005260206000209081019061120a91906112b5565b5b50565b82805461121a90611afe565b90600052602060002090601f01602090048101928261123c5760008555611283565b82601f1061125557805160ff1916838001178555611283565b82800160010185558215611283579182015b82811115611282578251825591602001919060010190611267565b5b50905061129091906112b5565b5090565b60405180606001604052806060815260200160608152602001600081525090565b5b808211156112ce5760008160009055506001016112b6565b5090565b60006112e56112e084611934565b611903565b9050828152602081018484840111156112fd57600080fd5b611308848285611abc565b509392505050565b60008135905061131f81611c17565b92915050565b600082601f83011261133657600080fd5b81356113468482602086016112d2565b91505092915050565b60008135905061135e81611c2e565b92915050565b60006020828403121561137657600080fd5b600061138484828501611310565b91505092915050565b600080604083850312156113a057600080fd5b60006113ae85828601611310565b92505060206113bf8582860161134f565b9150509250929050565b6000602082840312156113db57600080fd5b600082013567ffffffffffffffff8111156113f557600080fd5b61140184828501611325565b91505092915050565b6000806040838503121561141d57600080fd5b600083013567ffffffffffffffff81111561143757600080fd5b61144385828601611325565b925050602083013567ffffffffffffffff81111561146057600080fd5b61146c85828601611325565b9150509250929050565b60006020828403121561148857600080fd5b60006114968482850161134f565b91505092915050565b600080604083850312156114b257600080fd5b60006114c08582860161134f565b925050602083013567ffffffffffffffff8111156114dd57600080fd5b6114e985828601611325565b9150509250929050565b60006114ff8383611753565b905092915050565b600061151282611989565b61151c81856119ac565b93508360208202850161152e85611964565b8060005b8581101561156a578484038952815161154b85826114f3565b94506115568361199f565b925060208a01995050600181019050611532565b50829750879550505050505092915050565b61158581611a86565b82525050565b600061159682611994565b6115a081856119bd565b93506115b0818560208601611acb565b6115b981611c06565b840191505092915050565b60006115cf82611994565b6115d981856119ce565b93506115e9818560208601611acb565b6115f281611c06565b840191505092915050565b600061160882611994565b61161281856119df565b9350611622818560208601611acb565b80840191505092915050565b6000815461163b81611afe565b61164581866119df565b945060018216600081146116605760018114611671576116a4565b60ff198316865281860193506116a4565b61167a85611974565b60005b8381101561169c5781548189015260018201915060208101905061167d565b838801955050505b50505092915050565b60006116ba6016836119ce565b91507f5265636f726420646f6573206e6f742065786973742e000000000000000000006000830152602082019050919050565b60006116fa602a836119ce565b91507f596f7520617265206e6f7420616c6c6f77656420746f206d6f6469667920746860008301527f6973207265636f72642e000000000000000000000000000000000000000000006020830152604082019050919050565b60006060830160008301518482036000860152611770828261158b565b9150506020830151848203602086015261178a828261158b565b915050604083015161179f60408601826117aa565b508091505092915050565b6117b381611ab2565b82525050565b6117c281611ab2565b82525050565b60006117d482846115fd565b915081905092915050565b60006117eb828461162e565b915081905092915050565b600060208201905081810360008301526118108184611507565b905092915050565b600060208201905061182d600083018461157c565b92915050565b6000606082019050818103600083015261184d81866115c4565b9050818103602083015261186181856115c4565b905061187060408301846117b9565b949350505050565b60006020820190508181036000830152611891816116ad565b9050919050565b600060208201905081810360008301526118b1816116ed565b9050919050565b60006020820190506118cd60008301846117b9565b92915050565b60006040820190506118e860008301856117b9565b81810360208301526118fa81846115c4565b90509392505050565b6000604051905081810181811067ffffffffffffffff8211171561192a57611929611bd7565b5b8060405250919050565b600067ffffffffffffffff82111561194f5761194e611bd7565b5b601f19601f8301169050602081019050919050565b6000819050602082019050919050565b60008190508160005260206000209050919050565b600081519050919050565b600081519050919050565b6000602082019050919050565b600082825260208201905092915050565b600082825260208201905092915050565b600082825260208201905092915050565b600081905092915050565b60006119f582611ab2565b9150611a0083611ab2565b9250827fffffffffffffffffffffffffffffffffffffffffffffffffffffffffffffffff03821115611a3557611a34611b79565b5b828201905092915050565b6000611a4b82611ab2565b9150611a5683611ab2565b925082821015611a6957611a68611b79565b5b828203905092915050565b6000611a7f82611a92565b9050919050565b60008115159050919050565b600073ffffffffffffffffffffffffffffffffffffffff82169050919050565b6000819050919050565b82818337600083830152505050565b60005b83811015611ae9578082015181840152602081019050611ace565b83811115611af8576000848401525b50505050565b60006002820490506001821680611b1657607f821691505b60208210811415611b2a57611b29611ba8565b5b50919050565b6000611b3b82611ab2565b91507fffffffffffffffffffffffffffffffffffffffffffffffffffffffffffffffff821415611b6e57611b6d611b79565b5b600182019050919050565b7f4e487b7100000000000000000000000000000000000000000000000000000000600052601160045260246000fd5b7f4e487b7100000000000000000000000000000000000000000000000000000000600052602260045260246000fd5b7f4e487b7100000000000000000000000000000000000000000000000000000000600052604160045260246000fd5b6000601f19601f8301169050919050565b611c2081611a74565b8114611c2b57600080fd5b50565b611c3781611ab2565b8114611c4257600080fd5b5056fea2646970667358221220f6fe0d66a8e6f424a8834ce47c9ab83d88725b179aa44cc15cc2b92ae424465f64736f6c63430008000033",
  "immutableReferences": {},
  "source": "pragma solidity ^0.8.0;\r\n\r\ncontract MedicalRecord {\r\n    struct Record {\r\n        string patientName;\r\n        string diagnosis;\r\n        uint date;\r\n    }\r\n\r\n    mapping(address => Record[]) public medicalRecords;\r\n    mapping(address => bool) public authorizedDoctors;\r\n\r\n    event RecordAdded(address indexed patient, string patientName, string diagnosis, uint date);\r\n    event RecordUpdated(address indexed patient, uint recordIndex, string diagnosis);\r\n    event RecordDeleted(address indexed patient, uint recordIndex);\r\n    event DoctorAuthorized(address indexed doctor);\r\n    event DoctorRevoked(address indexed doctor);\r\n\r\n    modifier onlyDoctor() {\r\n        require(authorizedDoctors[msg.sender], \"Only authorized doctors can perform this action.\");\r\n        _;\r\n    }\r\n\r\n    function addRecord(string memory patientName, string memory diagnosis) public {\r\n        Record memory newRecord = Record({\r\n            patientName: patientName,\r\n            diagnosis: diagnosis,\r\n            date: block.timestamp\r\n        });\r\n\r\n        medicalRecords[msg.sender].push(newRecord);\r\n        emit RecordAdded(msg.sender, patientName, diagnosis, block.timestamp);\r\n    }\r\n\r\n    function updateRecord(uint recordIndex, string memory newDiagnosis) public {\r\n        require(recordIndex < medicalRecords[msg.sender].length, \"Record does not exist.\");\r\n\r\n        require(authorizedDoctors[msg.sender] || msg.sender == msg.sender, \"You are not allowed to modify this record.\");\r\n\r\n        medicalRecords[msg.sender][recordIndex].diagnosis = newDiagnosis;\r\n        emit RecordUpdated(msg.sender, recordIndex, newDiagnosis);\r\n    }\r\n\r\n\r\n\r\n    function deleteRecord(uint recordIndex) public {\r\n        require(recordIndex < medicalRecords[msg.sender].length, \"Record does not exist.\");\r\n        for (uint i = recordIndex; i < medicalRecords[msg.sender].length - 1; i++) {\r\n            medicalRecords[msg.sender][i] = medicalRecords[msg.sender][i + 1];\r\n        }\r\n        medicalRecords[msg.sender].pop();\r\n        emit RecordDeleted(msg.sender, recordIndex);\r\n    }\r\n\r\n    function getRecords() public view returns (Record[] memory) {\r\n        return medicalRecords[msg.sender];\r\n    }\r\n\r\n    function getRecordsByPatientName(string memory patientName) public view returns (Record[] memory) {\r\n        Record[] memory patientRecords = new Record[](medicalRecords[msg.sender].length);\r\n        uint count = 0;\r\n\r\n        for (uint i = 0; i < medicalRecords[msg.sender].length; i++) {\r\n            if (keccak256(abi.encodePacked(medicalRecords[msg.sender][i].patientName)) == keccak256(abi.encodePacked(patientName))) {\r\n                patientRecords[count] = medicalRecords[msg.sender][i];\r\n                count++;\r\n            }\r\n        }\r\n\r\n        bytes memory encoded = abi.encode(patientRecords);\r\n        assembly {\r\n            mstore(add(encoded, 0x40), count)\r\n        }\r\n\r\n        return patientRecords;\r\n    }\r\n\r\n    function authorizeDoctor(address doctor) public {\r\n        authorizedDoctors[doctor] = true;\r\n        emit DoctorAuthorized(doctor);\r\n    }\r\n\r\n    function revokeDoctor(address doctor) public {\r\n        authorizedDoctors[doctor] = false;\r\n        emit DoctorRevoked(doctor);\r\n    }\r\n}\r\n",
  "sourcePath": "C:\\med-app\\contracts\\MedicalRecord.sol",
  "compiler": {
    "name": "solc",
    "version": "0.8.0+commit.c7dfd78e.Emscripten.clang"
  },
  "schemaVersion": "3.4.16",
  "updatedAt": "2024-12-16T03:11:40.026Z",
  "networkType": "ethereum",
  "devdoc": {
    "kind": "dev",
    "methods": {},
    "version": 1
  },
  "userdoc": {
    "kind": "user",
    "methods": {},
    "version": 1
  }
}